:1000000071C000008EC000008CC000008AC00000DB
:1000100088C0000086C0000084C0000082C00000CC
:1000200080C000007EC000007CC000007AC00000DC
:1000300078C0000076C0000074C0000072C00000EC
:1000400070C000006EC000006CC000006AC00000FC
:1000500068C0000066C0000064C000006AC0000004
:1000600060C000005EC000005CC000005AC000001C
:1000700058C0000056C0000054C0000052C000002C
:1000800050C000004EC000004CC000004AC000003C
:1000900048C0000046C0000044C0000042C000004C
:1000A00040C000003EC000003CC000003AC000005C
:1000B00038C0000036C0000034C0000032C000006C
:1000C00030C000002EC000002CC000002AC000007C
:1000D00028C0000026C0000024C0000022C000008C
:1000E00020C0000011241FBECFEFD1E2DEBFCDBF84
:1000F00000E00CBF12E0A0E0B2E0EAE4F5E000E0CE
:100100000BBF02C007900D92A230B107D9F722E0D1
:10011000A2E0B2E001C01D92A530B207E1F702D023
:1001200012C26ECF86D081E0ADD080E08ED0C9D033
:10013000FFCF1F920F920FB60F9211240BB60F92A2
:100140002F933F934F935F936F937F938F939F93DF
:10015000AF93BF93EF93FF93809101028823B1F097
:1001600030910202632F70E040910302209100025F
:10017000822F90E0840F911D6817790724F0240FD7
:100180002093030218C03093030215C0309102027D
:10019000632F70E02091030240910002822F90E0D3
:1001A000841B91098617970724F0241B20930302D0
:1001B00002C0309303026091030270E080E090E09F
:1001C000D3D023E333E343E251E432D19AD02091F8
:1001D0000402211109C010928B0010928A007093C2
:1001E00089006093880008C01092890010928800EE
:1001F00070938B0060938A009091020280910302B9
:10020000981304C0EEE6F0E080818083FF91EF91C7
:10021000BF91AF919F918F917F916F915F914F911E
:100220003F912F910F900BBE0F900FBE0F901F901C
:10023000189583EA8093800081E08093810010927A
:10024000890010928800789408958536D0F49091B2
:1002500003028917B1F020910202921312C098177D
:1002600020F491E09093010202C010920102809369
:100270000202EEE6F0E080818160808314BC85E0BC
:1002800085BD0895CF93DF9390910302911107C02C
:1002900090910202911103C0809304020FC0C82FF5
:1002A000D091020280E0D1DF2091030290910202FE
:1002B0002913FACFC09304028D2FC7DFDF91CF91AE
:1002C000089511B88FEF84B915B8009902C080E085
:1002D000BCDF019902C089E1B8DF029902C082E364
:1002E000B4DF039902C08BE4B0DF049902C084E656
:1002F000ACDF0799EACF9091040281E08927C2DF41
:10030000E4CF04D06894B1118DC0089570D088F006
:100310009F5790F0B92F9927B751A0F0D1F0660FF1
:10032000771F881F991F1AF0BA95C9F712C0B1300C
:1003300081F077D0B1E0089574C0672F782F8827B7
:10034000B85F39F0B93FCCF3869577956795B3954B
:10035000D9F73EF490958095709561957F4F8F4FBA
:100360009F4F0895E89409C097FB3EF490958095BF
:10037000709561957F4F8F4F9F4F9923A9F0F92F6B
:1003800096E9BB279395F695879577956795B795E9
:10039000F111F8CFFAF4BB0F11F460FF1BC06F5FCF
:1003A0007F4F8F4F9F4F16C0882311F096E911C0E1
:1003B000772321F09EE8872F762F05C0662371F002
:1003C00096E8862F70E060E02AF09A95660F771F16
:1003D000881FDAF7880F9695879597F9089557FD46
:1003E0009058440F551F59F05F3F71F04795880FA3
:1003F00097FB991F61F09F3F79F08795089512163A
:1004000013061406551FF2CF4695F1DF08C01616E5
:1004100017061806991FF1CF869571056105089496
:100420000895E894BB2766277727CB0197F90895AD
:100430000BD078C069D028F06ED018F0952309F061
:100440005AC05FC01124EECFCADFA0F3959FD1F34D
:10045000950F50E0551F629FF001729FBB27F00D72
:10046000B11D639FAA27F00DB11DAA1F649F6627C7
:10047000B00DA11D661F829F2227B00DA11D621F16
:10048000739FB00DA11D621F839FA00D611D221FD0
:10049000749F3327A00D611D231F849F600D211DB4
:1004A000822F762F6A2F11249F5750408AF0E1F057
:1004B00088234AF0EE0FFF1FBB1F661F771F881FA0
:1004C00091505040A9F79E3F510570F014C0AACF3B
:1004D0005F3FECF3983EDCF3869577956795B7958B
:1004E000F795E7959F5FC1F7FE2B880F911D9695B5
:1004F000879597F9089597F99F6780E870E060E025
:1005000008959FEF80EC089500240A9416161706AC
:1005100018060906089500240A94121613061406F4
:1005200005060895092E0394000C11F4882352F057
:10053000BB0F40F4BF2B11F460FF04C06F5F7F4F0F
:0A0540008F4F9F4F0895F894FFCFEE
:02054A000201AC
:00000001FF
