S01200005357372D73772D6361722E73726563B7
S113000071C000008EC000008CC000008AC00000D7
S113001088C0000086C0000084C0000082C00000C8
S113002080C000007EC000007CC000007AC00000D8
S113003078C0000076C0000074C0000072C00000E8
S113004070C000006EC000006CC000006AC00000F8
S113005068C0000066C0000064C0000062C0000008
S113006060C000005EC000005CC000005AC0000018
S113007058C0000056C0000054C0000052C0000028
S113008050C000004EC000004CC000009AC00000E8
S113009048C0000046C0000044C0000042C0000048
S11300A040C000003EC000003CC000003AC0000058
S11300B038C0000036C0000034C0000032C0000068
S11300C030C000002EC000002CC000002AC0000078
S11300D028C0000026C0000024C0000022C0000088
S11300E020C0000011241FBECFEFD1E2DEBFCDBF80
S11300F000E00CBF12E0A0E0B2E0ECE2F7E000E0C8
S11301000BBF02C007900D92A433B107D9F722E0C8
S1130110A4E3B2E001C01D92A633B207E1F748D0D0
S113012003C36ECFE4D039D110C0089582E090E0CB
S113013062D182E090E09BD18111FBCF81E015D0A8
S113014081E026D086E4BDC008958FEF80930A0134
S11301508093010110920B011092020183E88093B5
S1130160A00081E08093A1000895882351F080E8E5
S113017080930B018CEC90E09093A9008093A800ED
S1130180089510920B011092A9001092A8000895EE
S1130190882339F08FEF93E09093A9008093A8000F
S11301A008958CEC90E09093A9008093A8000895A2
S11301B0B9DF11B88FEF84B915B80099FECFB6DF57
S11301C0FCCF1F920F920FB60F9211240BB60F9211
S11301D02F933F934F935F936F937F938F939F934B
S11301E0AF93BF93EF93FF93809101028823B1F003
S11301F030913402632F70E0409135022091000267
S1130200822F90E0840F911D6817790724F0240F42
S11302102093350218C03093350215C03091340252
S1130220632F70E02091350240910002822F90E00C
S1130230841B91098617970724F0241B2093350209
S113024002C0309335026091350270E080E090E0A6
S11302507CD123E333E343E251E4DBD143D1209166
S11302600202211109C010928B0010928A0070932F
S113027089006093880008C0109289001092880059
S113028070938B0060938A009091340280913502C0
S1130290981304C0E1E7F0E080818083FF91EF913F
S11302A0BF91AF919F918F917F916F915F914F918A
S11302B03F912F910F900BBE0F900FBE0F901F9088
S11302C01895853698F490913502891779F0981726
S11302D020F491E09093010202C0109201028093F5
S11302E03402E1E7F0E08081816080830895CF9358
S11302F08FEF84B983EA80938000C1E0C0938100CA
S1130300E1E7F0E0808180831092900082E08093A6
S1130310910010928900109288007894C093020290
S113032080E0CFDFC093010285E080930002CF918B
S11303300895AC0120E030E0283031057CF4909140
S1130340C80095FFFCCFF901EE0FFF1FE40FF51F66
S113035090819093CE002F5F3F4FEECF0895DC0144
S113036020E030E026303105A4F49091C8009923B0
S1130370E4F7F901EE0FFF1FEA0FFB1F60817181A3
S11303804091CE0050E06417750729F42F5F3F4F6A
S1130390E9CF81E0089580E00895CF93DF93CDB74E
S11303A0DEB760970FB6F894DEBF0FBECDBF80E214
S11303B08093C80088E18093C90086E08093CA00D6
S11303C087E690E09093CD008093CC0080E1E3E059
S11303D0F2E0DE01119601900D928A95E1F7CE01CB
S11303E00196A7DF60960FB6F894DEBF0FBECDBFAF
S11303F0DF91CF910895CF93DF93CDB7DEB76097A8
S11304000FB6F894DEBF0FBECDBF9C012150310959
S11304102F30310518F59C01AC014D5F5F4F5195AC
S113042041955109CE01019660E1FC0111926A9552
S1130430E9F76EE770E07A83698363E070E07C83B8
S11304406B836FEF70E07C876B876FEE70E0788B67
S11304506F873A8729875E874D876BDF60960FB673
S1130460F894DEBF0FBECDBFDF91CF910895CF9337
S1130470DF93CDB7DEB760970FB6F894DEBF0FBE3B
S1130480CDBF9C01235C3F4F319521953109FE017D
S1130490319640E1DF011D924A95E9F74EE750E0BD
S11304A05A8349834DE350E05C834B834FEF50E024
S11304B05C874B874FEE50E0588B4F879A8789872C
S11304C03E872D87CF014BDF882311F080E001C0E8
S11304D081E060960FB6F894DEBF0FBECDBFDF910A
S11304E0CF91089504D06894B1118DC0089570D04F
S11304F088F09F5790F0B92F9927B751A0F0D1F009
S1130500660F771F881F991F1AF0BA95C9F712C092
S1130510B13081F077D0B1E0089574C0672F782F9F
S11305208827B85F39F0B93FCCF3869577956795FE
S1130530B395D9F73EF490958095709561957F4F6A
S11305408F4F9F4F0895E89409C097FB3EF4909510
S11305508095709561957F4F8F4F9F4F9923A9F098
S1130560F92F96E9BB279395F69587957795679527
S1130570B795F111F8CFFAF4BB0F11F460FF1BC06B
S11305806F5F7F4F8F4F9F4F16C0882311F096E9FE
S113059011C0772321F09EE8872F762F05C06623AC
S11305A071F096E8862F70E060E02AF09A95660F65
S11305B0771F881FDAF7880F9695879597F908951E
S11305C057FD9058440F551F59F05F3F71F0479500
S11305D0880F97FB991F61F09F3F79F087950895E5
S11305E0121613061406551FF2CF4695F1DF08C004
S11305F0161617061806991FF1CF86957105610521
S113060008940895E894BB2766277727CB0197F9C8
S113061008950BD078C069D028F06ED018F09523D7
S113062009F05AC05FC01124EECFCADFA0F3959F32
S1130630D1F3950F50E0551F629FF001729FBB27C5
S1130640F00DB11D639FAA27F00DB11DAA1F649F71
S11306506627B00DA11D661F829F2227B00DA11D24
S1130660621F739FB00DA11D621F839FA00D611DAA
S1130670221F749F3327A00D611D231F849F600DCB
S1130680211D822F762F6A2F11249F5750408AF004
S1130690E1F088234AF0EE0FFF1FBB1F661F771F90
S11306A0881F91505040A9F79E3F510570F014C027
S11306B0AACF5F3FECF3983EDCF386957795679578
S11306C0B795F795E7959F5FC1F7FE2B880F911DAE
S11306D09695879597F9089597F99F6780E870E054
S11306E060E008959FEF80EC089500240A941616A4
S11306F0170618060906089500240A94121613060C
S1130700140605060895092E0394000C11F4882399
S113071052F0BB0F40F4BF2B11F460FF04C06F5FB5
S10F07207F4F8F4F9F4F0895F894FFCF38
S113072C0501017E000600000000001E00FF00DC35
S113073C00EF007E001600000000000000FF00EA3D
S113074C00EF007E000600000000000500FF00F52D
S107075C00EF0000A6
S9030000FC
