:100000007CC00000B1C00000D8C0000095C0000056
:1000100093C0000091C000008FC000008DC00000A0
:100020008BC0000089C0000087C0000085C00000B0
:1000300083C0000081C000007FC000007DC00000C0
:100040007BC0000079C0000077C0000075C00000D0
:1000500073C0000071C000006FC000006DC00000E0
:100060006BC0000069C0000067C0000065C00000F0
:1000700063C0000061C000005FC000005DC0000000
:100080005BC0000059C0000057C000000CC2000057
:1000900053C0000051C000004FC000004DC0000020
:1000A0004BC0000049C0000047C0000045C0000030
:1000B00043C0000041C000003FC000003DC0000040
:1000C0003BC0000039C0000037C0000035C0000050
:1000D00033C0000031C000002FC000002DC0000060
:1000E0002BC000003A013E0144015C01620166013F
:1000F0007F0183019D01A101B70111241FBECFEF34
:10010000D1E2DEBFCDBF00E00CBF12E0A0E0B2E064
:10011000E2E8FAE000E00BBF02C007900D92A433C2
:10012000B107D9F722E0A4E3B2E001C01D92A833E1
:10013000B207E1F7ABD1A3C463CF809135028F5FE3
:100140008093350281E0809334022FEF89E698E1B5
:10015000215080409040E1F700C000008FEF8CBB41
:100160008DB383608DBB08951F920F920FB60F92CF
:1001700011240BB60F922F933F934F935F936F937E
:100180007F938F939F93AF93BF93EF93FF938DB321
:100190008DBBD3DFFF91EF91BF91AF919F918F9175
:1001A0007F916F915F914F913F912F910F900BBE77
:1001B0000F900FBE0F901F9018951F920F920FB6C1
:1001C0000F9211240BB60F922F933F934F935F938F
:1001D0006F937F938F939F93AF93BF93EF93FF930F
:1001E0008DB38DBBAADFFF91EF91BF91AF919F912E
:1001F0008F917F916F915F914F913F912F910F90D0
:100200000BBE0F900FBE0F901F901895E2D168D2D1
:100210000AD178948FEF84B98FE0809369000895B4
:1002200081E090E08BD281E090E0C4D28111FBCFDD
:1002300081E009D183E2B7D1109235028FEF8CBBF8
:100240008DB383608DBB809134028823E1F31092DB
:1002500034028091350285B9E09135028E2F90E00D
:10026000FC013197EB30F10570F78827EE58FF4F0E
:100270008F4FFDC382E090E061D2E5CF83E090E054
:100280005DD280E590D1DFCF84E090E057D28AE064
:10029000E4D184E188D181E0E9D0E4D18111FDCFBE
:1002A0002FEF89E698E1215080409040E1F700C0AF
:1002B000000080E0DBD0C7CF85E090E03FD288E24D
:1002C00072D1C1CF8CE090E039D2BDCF87E090E011
:1002D00035D281E0CBD080E066D1C4D18111FDCF91
:1002E00099D188E260D12FEF89E698E121508040D2
:1002F0009040E1F700C0000080E0B8D0A4CF86E0D5
:1003000090E01CD2A0CF88E090E018D281E0AED07F
:1003100080E049D1A7D18111FDCF81E07BD18CE371
:1003200042D12FEF89E698E1215080409040E1F7DB
:1003300000C0000080E09AD086CF83E090E0FED13C
:1003400082CF89E090E0FAD18EE12DD181E08ED08C
:1003500089D18111FDCF2FEF89E698E121508040AE
:100360009040E1F700C0000080E080D06CCF8AE0D0
:1003700090E0E4D181E07AD08EE16FD180E013D1BA
:1003800071D18111FDCF2FEF89E698E12150804096
:100390009040E1F700C0000080E068D08AE090E083
:1003A00009D28111FBCF2FEF89E698E121508040DF
:1003B0009040E1F700C000008BE090E0BFD18BE0FF
:1003C00090E0F8D18111FBCF2FEF83ED90E3215026
:1003D00080409040E1F700C000008CE090E0AED19A
:1003E0008CE090E0E7D18111FBCF2FEF89E698E117
:1003F000215080409040E1F700C000008DE090E087
:100400009DD18DE090E0D6D18111FBCF2FEF83ED10
:1004100090E3215080409040E1F700C000008EE062
:1004200090E08CD110CF8FEF80930A01809301016F
:1004300010920B011092020183E88093A00081E0EA
:100440008093A1000895882351F080E880930B01E8
:100450008DEC90E09093A9008093A80008951092ED
:100460000B011092A9001092A8000895882339F07A
:100470008FEF93E09093A9008093A80008958DECEE
:1004800090E09093A9008093A8000895BFDE11B872
:10049000079902C0C5DEFCCF0099FACF81E0D3DF17
:1004A00081E0E4DFF5CF1F920F920FB60F92112477
:1004B0000BB60F922F933F934F935F936F937F935E
:1004C0008F939F93AF93BF93EF93FF93809101021C
:1004D0008823B1F030913602632F70E040913702EB
:1004E00020910002822F90E0840F911D68177907F8
:1004F00024F0240F2093370218C03093370215C020
:1005000030913602632F70E0209137024091000253
:10051000822F90E0841B91098617970724F0241BF3
:100520002093370202C0309337026091370270E0A7
:1005300080E090E0ADD123E333E343E251E40CD219
:1005400074D120910202211109C010928B001092E7
:100550008A00709389006093880008C01092890017
:100560001092880070938B0060938A0090913602FD
:1005700080913702981304C0E1E7F0E08081808326
:10058000FF91EF91BF91AF919F918F917F916F916B
:100590005F914F913F912F910F900BBE0F900FBE27
:1005A0000F901F901895853698F49091370289170F
:1005B00079F0981720F491E09093010202C0109214
:1005C000010280933602E1E7F0E080818160808360
:1005D0000895CF938FEF84B983EA80938000C1E0C0
:1005E000C0938100E1E7F0E0808180831092900069
:1005F00082E0809391001092890010928800C0934D
:10060000020280E0D0DFC093010285E08093000207
:10061000CF910895CF93DF93909102029817D1F074
:1006200090913702911107C090913602911103C049
:10063000809302020FC0C82FD091360280E0B3DF52
:1006400020913702909136022913FACFC09302020B
:100650008D2FA9DFDF91CF910895853610F4809317
:10066000000208959091370280913602981711F098
:1006700081E0089580E00895AC0120E030E028306A
:1006800031057CF49091C80095FFFCCFF901EE0F85
:10069000FF1FE40FF51F90819093CE002F5F3F4F17
:1006A000EECF0895DC0120E030E026303105A4F4DF
:1006B0009091C8009923E4F7F901EE0FFF1FEA0FAC
:1006C000FB1F608171814091CE0050E06417750777
:1006D00029F42F5F3F4FE9CF81E0089580E008952E
:1006E000CF93DF93CDB7DEB760970FB6F894DEBF38
:1006F0000FBECDBF80E28093C80088E18093C9001F
:1007000086E08093CA0087E690E09093CD008093C6
:10071000CC0080E1E3E0F2E0DE01119601900D9261
:100720008A95E1F7CE010196A7DF60960FB6F8949F
:10073000DEBF0FBECDBFDF91CF910895CF93DF9382
:10074000CDB7DEB760970FB6F894DEBF0FBECDBF52
:100750009C01215031092F30310518F59C01AC0165
:100760004D5F5F4F519541955109CE01019660E172
:10077000FC0111926A95E9F76EE770E07A8369836C
:1007800063E070E07C836B836FEF70E07C876B8746
:100790006FEE70E0788B6F873A8729875E874D8789
:1007A0006BDF60960FB6F894DEBF0FBECDBFDF9152
:1007B000CF910895CF93DF93CDB7DEB760970FB693
:1007C000F894DEBF0FBECDBF9C01235C3F4F319537
:1007D00021953109FE01319640E1DF011D924A95D4
:1007E000E9F74EE750E05A8349834DE350E05C83DC
:1007F0004B834FEF50E05C874B874FEE50E0588BB8
:100800004F879A8789873E872D87CF014BDF8823C3
:1008100011F080E001C081E060960FB6F894DEBF71
:100820000FBECDBFDF91CF91089504D06894B11170
:100830008DC0089570D088F09F5790F0B92F9927F8
:10084000B751A0F0D1F0660F771F881F991F1AF0DB
:10085000BA95C9F712C0B13081F077D0B1E00895F0
:1008600074C0672F782F8827B85F39F0B93FCCF371
:10087000869577956795B395D9F73EF490958095D1
:10088000709561957F4F8F4F9F4F0895E89409C0F1
:1008900097FB3EF490958095709561957F4F8F4FB3
:1008A0009F4F9923A9F0F92F96E9BB279395F695C9
:1008B000879577956795B795F111F8CFFAF4BB0F47
:1008C00011F460FF1BC06F5F7F4F8F4F9F4F16C0AB
:1008D000882311F096E911C0772321F09EE8872F35
:1008E000762F05C0662371F096E8862F70E060E0F1
:1008F0002AF09A95660F771F881FDAF7880F96956A
:10090000879597F9089557FD9058440F551F59F052
:100910005F3F71F04795880F97FB991F61F09F3FEC
:1009200079F087950895121613061406551FF2CF15
:100930004695F1DF08C0161617061806991FF1CF65
:1009400086957105610508940895E894BB2766278C
:100950007727CB0197F908950BD078C069D028F09C
:100960006ED018F0952309F05AC05FC01124EECF65
:10097000CADFA0F3959FD1F3950F50E0551F629FFA
:10098000F001729FBB27F00DB11D639FAA27F00DE8
:10099000B11DAA1F649F6627B00DA11D661F829F0F
:1009A0002227B00DA11D621F739FB00DA11D621FF4
:1009B000839FA00D611D221F749F3327A00D611D11
:1009C000231F849F600D211D822F762F6A2F1124F3
:1009D0009F5750408AF0E1F088234AF0EE0FFF1F46
:1009E000BB1F661F771F881F91505040A9F79E3F7D
:1009F000510570F014C0AACF5F3FECF3983EDCF3D2
:100A0000869577956795B795F795E7959F5FC1F7B9
:100A1000FE2B880F911D9695879597F9089597F964
:100A20009F6780E870E060E008959FEF80EC089594
:100A300000240A94161617061806090608950024BD
:100A40000A9412161306140605060895092E039437
:100A5000000C11F4882352F0BB0F40F4BF2B11F4AB
:100A600060FF04C06F5F7F4F8F4F9F4F0895EE0F61
:100A7000FF1F881F8BBF0790F691E02D1994F89403
:020A8000FFCFA6
:100A82000501017E000600000000001E00FF00DCE0
:100A920000EF007E001600000000000000FF00EAE8
:100AA20000EF007E000600000000000500FF00F5D8
:040AB20000EF000051
:00000001FF
